{
  "contractName": "myFirstContract",
  "abi": [
    {
      "constant": true,
      "inputs": [],
      "name": "owner",
      "outputs": [
        {
          "name": "",
          "type": "address"
        }
      ],
      "payable": false,
      "stateMutability": "view",
      "type": "function",
      "signature": "0x8da5cb5b"
    },
    {
      "inputs": [],
      "payable": false,
      "stateMutability": "nonpayable",
      "type": "constructor",
      "signature": "constructor"
    },
    {
      "anonymous": false,
      "inputs": [
        {
          "indexed": false,
          "name": "from",
          "type": "address"
        },
        {
          "indexed": true,
          "name": "to",
          "type": "address"
        },
        {
          "indexed": false,
          "name": "amount",
          "type": "uint256"
        }
      ],
      "name": "Transfered",
      "type": "event",
      "signature": "0x8930ac7bcb101f94c05b13845098ae74383bfb9e348e73061b730040945cbb82"
    },
    {
      "constant": false,
      "inputs": [
        {
          "name": "_to",
          "type": "address"
        },
        {
          "name": "amount",
          "type": "uint256"
        }
      ],
      "name": "send",
      "outputs": [],
      "payable": false,
      "stateMutability": "nonpayable",
      "type": "function",
      "signature": "0xd0679d34"
    },
    {
      "constant": true,
      "inputs": [
        {
          "name": "_user",
          "type": "address"
        }
      ],
      "name": "getBalance",
      "outputs": [
        {
          "name": "",
          "type": "uint256"
        }
      ],
      "payable": false,
      "stateMutability": "view",
      "type": "function",
      "signature": "0xf8b2cb4f"
    }
  ],
  "bytecode": "0x608060405234801561001057600080fd5b50336000806101000a81548173ffffffffffffffffffffffffffffffffffffffff021916908373ffffffffffffffffffffffffffffffffffffffff160217905550612710600260003373ffffffffffffffffffffffffffffffffffffffff1673ffffffffffffffffffffffffffffffffffffffff16815260200190815260200160002081905550612710600181905550610465806100af6000396000f3fe608060405260043610610057576000357c0100000000000000000000000000000000000000000000000000000000900463ffffffff1680638da5cb5b1461005c578063d0679d34146100b3578063f8b2cb4f1461010e575b600080fd5b34801561006857600080fd5b50610071610173565b604051808273ffffffffffffffffffffffffffffffffffffffff1673ffffffffffffffffffffffffffffffffffffffff16815260200191505060405180910390f35b3480156100bf57600080fd5b5061010c600480360360408110156100d657600080fd5b81019080803573ffffffffffffffffffffffffffffffffffffffff16906020019092919080359060200190929190505050610198565b005b34801561011a57600080fd5b5061015d6004803603602081101561013157600080fd5b81019080803573ffffffffffffffffffffffffffffffffffffffff169060200190929190505050610395565b6040518082815260200191505060405180910390f35b6000809054906101000a900473ffffffffffffffffffffffffffffffffffffffff1681565b80600260003373ffffffffffffffffffffffffffffffffffffffff1673ffffffffffffffffffffffffffffffffffffffff16815260200190815260200160002054101515156101e657600080fd5b600260008373ffffffffffffffffffffffffffffffffffffffff1673ffffffffffffffffffffffffffffffffffffffff1681526020019081526020016000205481600260008573ffffffffffffffffffffffffffffffffffffffff1673ffffffffffffffffffffffffffffffffffffffff16815260200190815260200160002054011015151561027557600080fd5b80600260003373ffffffffffffffffffffffffffffffffffffffff1673ffffffffffffffffffffffffffffffffffffffff1681526020019081526020016000206000828254039250508190555080600260008473ffffffffffffffffffffffffffffffffffffffff1673ffffffffffffffffffffffffffffffffffffffff168152602001908152602001600020600082825401925050819055508173ffffffffffffffffffffffffffffffffffffffff167f8930ac7bcb101f94c05b13845098ae74383bfb9e348e73061b730040945cbb823383604051808373ffffffffffffffffffffffffffffffffffffffff1673ffffffffffffffffffffffffffffffffffffffff1681526020018281526020019250505060405180910390a25050565b60008060009054906101000a900473ffffffffffffffffffffffffffffffffffffffff1673ffffffffffffffffffffffffffffffffffffffff163373ffffffffffffffffffffffffffffffffffffffff161415156103f257600080fd5b600260008373ffffffffffffffffffffffffffffffffffffffff1673ffffffffffffffffffffffffffffffffffffffff16815260200190815260200160002054905091905056fea165627a7a72305820451224f0491b8203f602b7d883806f6fc47b9505439ce50c24e885886c3157f00029",
  "source": "pragma solidity >=0.4.22 <0.6.0;\r\n\r\ncontract myFirstContract {\r\n    //Declaracion de variables\r\n    address public owner;\r\n    uint256 private totalSupply;\r\n    mapping (address=>uint256) internal balanceOf;\r\n\r\n    event Transfered(address from, address indexed to,uint256 amount);\r\n\r\n    //Consrutor del contrato\r\n    constructor () public {\r\n        owner = msg.sender;\r\n        balanceOf[msg.sender] = 10000;\r\n        totalSupply = 10000;\r\n    }\r\n\r\n    //Modificadores\r\n    modifier onlyOwner() {\r\n        if(msg.sender != owner){\r\n            revert();\r\n        }\r\n        _;\r\n    }\r\n\r\n    //funciones del contrato\r\n    function send(address _to, uint256 amount) public {\r\n        require(balanceOf[msg.sender] >= amount);\r\n        require(balanceOf[_to] + amount >= balanceOf[_to]);\r\n\r\n        balanceOf[msg.sender] -= amount;\r\n        balanceOf[_to] += amount;\r\n\r\n        emit Transfered(msg.sender, _to, amount);\r\n    }\r\n\r\n    function getBalance(address _user) view public onlyOwner returns(uint256) {\r\n        return balanceOf[_user];\r\n    }\r\n}\r\n",
  "sourcePath": "C:/Users/Ivan/Desktop/Ivan/bootcamp-geekshubs-blockchain/introSmartContracts/contracts/myFirstContract.sol",
  "compiler": {
    "name": "solc",
    "version": "0.5.0+commit.1d4f565a.Emscripten.clang"
  },
  "schemaVersion": "3.0.1",
  "updatedAt": "2019-01-12T09:37:22.965Z",
  "devdoc": {
    "methods": {}
  },
  "userdoc": {
    "methods": {}
  }
}